:10000000A5C10000D4C10000D2C10000D0C10000D1
:10001000CEC10000CCC10000CAC10000C8C10000B0
:10002000C6C100000C94870B0C94870B0C94870BB3
:10003000BEC10000BCC10000BAC10000B8C10000D0
:10004000B6C10000B4C10000B2C10000B0C10000E0
:10005000AEC10000ACC10000AAC100000C94580A57
:10006000A6C100000C94CD100C94A410A0C10000F7
:100070009EC100009CC100009AC1000098C1000010
:1000800096C1000094C1000092C1000090C1000020
:100090008EC100008CC100008AC1000088C1000030
:1000A00086C1000084C1000082C1000080C1000040
:1000B0007EC100007CC100007AC1000078C1000050
:1000C00076C1000074C1000072C100000C947B1066
:1000D0000C9452106CC100000C9429100C94001068
:1000E00066C100002411271116111A111E115E118C
:1000F0002B112F11351139113D11431147114B119E
:100100005E1151115511591167E6096A85AE67BB39
:1001100072F36E3C3AF54FA57F520E518C68059BE9
:10012000ABD9831F19CDE05B982F8A429144377178
:10013000CFFBC0B5A5DBB5E95BC25639F111F1596A
:10014000A4823F92D55E1CAB98AA07D8015B8312AC
:10015000BE853124C37D0C55745DBE72FEB1DE8058
:10016000A706DC9B74F19BC1C1699BE48647BEEF87
:10017000C69DC10FCCA10C246F2CE92DAA84744A12
:10018000DCA9B05CDA88F97652513E986DC631A888
:10019000C82703B0C77F59BFF30BE0C64791A7D567
:1001A0005163CA0667292914850AB72738211B2EEF
:1001B000FC6D2C4D130D385354730A65BB0A6A76D7
:1001C0002EC9C281852C7292A1E8BFA24B661AA8E3
:1001D000708B4BC2A3516CC719E892D1240699D6F3
:1001E00085350EF470A06A1016C1A419086C371E6C
:1001F0004C774827B5BCB034B30C1C394AAAD84E4A
:100200004FCA9C5BF36F2E68EE828F746F63A57884
:100210001478C8840802C78CFAFFBE90EB6C50A417
:10022000F7A3F9BEF27871C6000021002400270070
:100230002A002D00300033000101000004010701F5
:100240000A0100000A0B02090C0D0E080703040145
:10025000000000000000000000000000000000009E
:10026000000000000000000000000000000012116B
:10027000100000000000000000000000000000006E
:1002800000000000000000000000220025002800FF
:100290002B002E003100340002010000050108018E
:1002A0000B01000020002300260029002C002F0055
:1002B00032000001000003010601090105050505E2
:1002C000070508080808020202020A0A08080404CE
:1002D00004040101010101010101030303030303FC
:1002E0000303040707070C0C0C0C0C0C0C0C02028B
:1002F000020206060606060606060B0B0B0B0B0B88
:100300000B0B010210202008081020401020408014
:1003100002010201080402010102040810204080C9
:100320008040201008040201800402018040201057
:1003300008040201080402010102040810204080A0
:1003400001020408102040808017711411241FBE80
:10035000CFEFD1E2DEBFCDBF00E00CBF15E0A0E0E3
:10036000B2E0E4EFF7E300E00BBF02C007900D92AC
:10037000A83CB107D9F72EE0A8ECB5E001C01D926A
:10038000A933B207E1F711E0C5EAD1E000E006C009
:1003900021970109802FFE010E94F018C43AD1076D
:1003A00080E00807A9F70E947B140C94E91B28CE73
:1003B0003FB7F89480917F0890918008A0918108C0
:1003C000B091820826B5A89B05C02F3F19F0019671
:1003D000A11DB11D3FBFBA2FA92F982F8827820FCB
:1003E000911DA11DB11DBC01CD0142E0660F771F1B
:1003F000881F991F4A95D1F708952091850830915B
:1004000086082817390771F4909183088091840831
:10041000981741F0E0918308F0E0E65CF74F8081A7
:1004200090E008958FEF9FEF089508951F93CF9365
:10043000DF93DC015C962D913C915D972115310590
:1004400039F481E090E013969C938E9312973DC00F
:100450005196ED91FC91529750969C915097892F0F
:1004600080951FB75E964C915E9741FB772770F998
:1004700041FD6095F8944081772311F0492B01C02C
:1004800048234083E9012197F1F748E0508160FF5C
:1004900002C0592B01C058235083E9012197F1F77D
:1004A0006695415099F7772321F0908189238083C5
:1004B00003C08081982B90831FBF5C968D919C9187
:1004C0005D970197F1F721E030E0C901DF91CF910D
:1004D0001F910895209185083091860828173907C3
:1004E00069F4809184082091830890E0805C9F4F9C
:1004F000821B910960E470E00C94BB1880E090E0EE
:100500000895209185083091860828173907B9F495
:100510009091830880918408981789F0E09183086E
:10052000F0E0E65CF74F80812091830830E02F5F98
:100530003F4F2F7333272093830890E008958FEF68
:100540009FEF08952F923F924F925F926F927F920A
:100550008F929F92AF92BF92CF92DF92EF92FF92D3
:100560000F931F93CF93DF93CDB7DEB7C554D10957
:100570000FB6F894DEBF0FBECDBF26969FAF8EAFED
:100580002697FC01EC5BFF4F808193E0982726962D
:10059000AEADBFAD2697A90FB11D14966C938F5FBA
:1005A0008083803409F0B0C326962EAD3FAD2697E8
:1005B0002B5B3F4FD9018D909D90AD90BC9088A250
:1005C00099A2AAA2BBA226962EAD3FAD2697275B85
:1005D0003F4FD9018D909D90AD90BC908CA29DA273
:1005E000AEA2BFA226962EAD3FAD2697235B3F4F0E
:1005F000D9018D909D90AD90BC9088A699A6AAA691
:10060000BBA626962EAD3FAD26972F5A3F4FD90158
:100610008D909D90AD90BC908CA69DA6AEA6BFA6D9
:1006200026962EAD3FAD26972B5A3F4FD9018D9080
:100630009D90AD90BC9088AA99AAAAAABBAA26961A
:100640002EAD3FAD2697275A3F4FD9018D909D90F3
:10065000AD90BC908CAA9DAAAEAABFAA26962EAD3C
:100660003FAD2697235A3F4FD9018D909D90AD9075
:10067000BC9088AE99AEAAAEBBAE26962EAD3FAD6D
:1006800026972F593F4FD9018D909D90AD90BC90EA
:100690008CAE9DAEAEAEBFAE08E211E01F8F0E8FE6
:1006A0002CA53DA54EA55FA52E8B3F8B488F598F5E
:1006B00048A559A56AA57BA54A8B5B8B6C8B7D8B66
:1006C0006CA17DA18EA19FA16E877F87888B998B5E
:1006D000C8A0D9A0EAA0FBA08CA99DA9AEA9BFA9DA
:1006E0008A8F9B8FAC8FBD8F88AC99ACAAACBBAC0A
:1006F0008A869B86AC86BD868CAD9DADAEADBFAD0A
:1007000008A919A92AA93BA90D831E832F8338871D
:100710001AEF212E33243A9419862E8D3F8DF9013C
:1007200045905590659074900D811E812F8138857C
:1007300045E1000F111F221F331F4A95D1F74D814C
:100740005E816F817885EBE0769567955795479543
:10075000EA95D1F7402B512B622B732B8D809E8015
:10076000AF80B884FAE1880C991CAA1CBB1CFA95CE
:10077000D1F70D811E812F813885E6E036952795CA
:1007800017950795EA95D1F7082919292A293B29B0
:1007900004271527262737274D815E816F817885AD
:1007A000F9E17695679557954795FA95D1F78D803C
:1007B0009E80AF80B884E7E0880C991CAA1CBB1C03
:1007C000EA95D1F7842A952AA62AB72A8026912667
:1007D000A226B3264A855B856C857D850A8D1B8D97
:1007E0002C8D3D8D40275127622773270D811E8157
:1007F0002F81388540235123622373230A851B856B
:100800002C853D854027512762277327840E951E2E
:10081000A61EB71E480C591C6A1C7B1C29852F700C
:100820002696EEADFFAD269714E0219FE00DF11D59
:10083000112484809580A680B780480C591C6A1CBE
:100840007B1C840D951DA61DB71D46015701F3E1C4
:10085000880C991CAA1CBB1CFA95D1F7B701A601FC
:100860001DE076956795579547951A95D1F72A011A
:100870003B01482859286A287B28970186014EE1C8
:10088000000F111F221F331F4A95D1F7B701A60190
:10089000E2E07695679557954795EA95D1F7402B15
:1008A000512B622B732B5301420184269526A626D9
:1008B000B72697018601F6E1369527951795079596
:1008C000FA95D1F7B701A601EAE0440F551F661F5C
:1008D000771FEA95D1F7402B512B622B732B4825BC
:1008E00059256A257B254A885B886C887D888E849B
:1008F0009F84A888B988482859286A287B284C20D2
:100900005D206E207F200A891B892C893D89082162
:1009100019212A213B210429152926293729040FC9
:10092000151F261F371F4E895F89688D798D480FE7
:10093000591F6A1F7B1F49835A836B837C8348013D
:100940005901880E991EAA1EBB1E24968CAE9DAE20
:10095000AEAEBFAE249709850F5F0987003409F456
:100960001BC11985103108F4D7C0812F8F702696CE
:100970002EAD3FAD269744E0849F200D311D1124FC
:100980003F8B2E8BF101EF70FF273196EE0FFF1F8B
:10099000EE0FFF1F2696AEADBFAD2697AE0FBF1F61
:1009A000F90104811581268137818D919D910D90EA
:1009B000BC91A02D28013901480E591E6A1E7B1ECC
:1009C000F1013596EF70FF273196EE0FFF1FEE0F06
:1009D000FF1F26968EAC9FAC2697E80DF91D00816F
:1009E000118122813381B901A8018DE0440F551F87
:1009F000661F771F8A95D1F7D901C801E3E1B69543
:100A0000A79597958795EA95D1F7482B592B6A2B8F
:100A10007B2BD901C801FFE0880F991FAA1FBB1FBC
:100A2000FA95D1F748015901E1E1B694A79497945A
:100A30008794EA95D1F7882A992AAA2ABB2A84267C
:100A40009526A626B726FAE0369527951795079599
:100A5000FA95D1F7082519252A253B25040D151DE2
:100A6000261D371DF1013897EF70FF273196EE0FE5
:100A7000FF1FEE0FFF1F2696AEACBFAC2697EA0D08
:100A8000FB1D40815181628173812A013B01BEE0DF
:100A9000440C551C661C771CBA95D1F7DB01CA01C2
:100AA000E2E1B695A79597958795EA95D1F7482AFB
:100AB000592A6A2A7B2ADB01CA01F7E0B695A79575
:100AC00097958795FA95D1F74A015B01E9E1880C82
:100AD000991CAA1CBB1CEA95D1F7882A992AAA2A34
:100AE000BB2A84249524A624B724F3E07695679541
:100AF00057954795FA95D1F784269526A626B726C9
:100B0000800E911EA21EB31EAE89BF8914968D92CF
:100B10009D92AD92BC9217970E8D1F8D0C5F1F4F4B
:100B20001F8F0E8F1FEF211A310A2A893B894C89AA
:100B30005D892E8B3F8B488F598F4E855F856889E5
:100B400079894A8B5B8B6C8B7D8BCE86DF86E88ABE
:100B5000F98A2496CCACDDACEEACFFAC24978A8548
:100B60009B85AC85BD858A8C9B8CAC8CBD8C8A8624
:100B70009B86AC86BD860D811E812F8138850A8FAC
:100B80001B8F2C8F3D8F29813A814B815C812D8376
:100B90003E834F835887C1CD26966EAD7FAD269795
:100BA0006B5B7F4FD501C40128A139A14AA15BA18C
:100BB000820F931FA41FB51FFB0180839183A28323
:100BC000B3832696EEADFFAD2697E75BFF4F8CA073
:100BD0009DA0AEA0BFA0C80CD91CEA1CFB1CC08203
:100BE000D182E282F38226966EAD7FAD2697635B5B
:100BF0007F4F8E859F85A889B98908A519A52AA543
:100C00003BA5800F911FA21FB31FFB01808391831F
:100C1000A283B38326966EAD7FAD26976F5A7F4F22
:100C20008A899B89AC89BD898CA49DA4AEA4BFA4EC
:100C3000880D991DAA1DBB1DFB0180839183A28392
:100C4000B38326966EAD7FAD26976B5A7F4F898111
:100C50009A81AB81BC8188A899A8AAA8BBA8880D55
:100C6000991DAA1DBB1DFB0180839183A283B383C1
:100C700026966EAD7FAD2697675A7F4F8D819E81F8
:100C8000AF81B8858CA89DA8AEA8BFA8880D991D76
:100C9000AA1DBB1DFB0180839183A283B38326968B
:100CA0006EAD7FAD2697635A7F4F8A8D9B8DAC8D3D
:100CB000BD8D88AC99ACAAACBBAC880D991DAA1DA2
:100CC000BB1DFB0180839183A283B38326966EAD07
:100CD0007FAD26976F597F4F8A859B85AC85BD85F3
:100CE0008CAC9DACAEACBFAC880D991DAA1DBB1DD4
:100CF000FB0180839183A283B3832696EEADFFAD83
:100D00002697EC5BFF4F1082CB5BDF4F0FB6F8945A
:100D1000DEBF0FBECDBFDF91CF911F910F91FF902E
:100D2000EF90DF90CF90BF90AF909F908F907F908B
:100D30006F905F904F903F902F900895262FFC0169
:100D4000EB59FF4F40815181628173814F5F5F4F4B
:100D50006F4F7F4F4083518362837383622FF2DB37
:100D600081E090E008952F923F924F925F926F92B0
:100D70007F928F929F92AF92BF92CF92DF92EF922B
:100D8000FF920F931F93CF93DF93CDB7DEB7A29758
:100D90000FB6F894DEBF0FBECDBF162FFC01E75A89
:100DA000FF4F40815181628173814F5F5F4F6F4F71
:100DB0007F4F40835183628373837597208133E033
:100DC0003227DC01A30FB11D14961C932F5F2083E3
:100DD000203409F0BEC1319680809180A280B3801A
:100DE00089869A86AB86BC863496A080B180C28004
:100DF000D380AD86BE86CF86D88A3496C080D18017
:100E0000E280F380C98ADA8AEB8AFC8A3496E08031
:100E1000F18002811381ED8AFE8A0F8B188F349640
:100E20000081118122813381098F1A8F2B8F3C8F92
:100E30000D8F1E8F2F8F38A329853A854B855C85B2
:100E40002D833E834F835887CD84DE84EF84F888DA
:100E50004D895E896F89788D49835A836B837C8342
:100E600009891A892B893C89212C312C522C50E17B
:100E700025163104C8F449815A816B817C81402751
:100E80005127622773274C215D216E217F218980A4
:100E90009A80AB80BC80482559256A257B2547561A
:100EA00056486D47754A9CC0422D4F703C0154E036
:100EB000459F600C711C1124D1011D96AF70BB279A
:100EC0001196AA0FBB1FAA0FBB1FA80FB91FF101D4
:100ED0003896EF70FF273196EE0FFF1FEE0FFF1FC2
:100EE000E80FF91F8D909D90AD90BC90408151818D
:100EF00062817381482559256A257B25D301149683
:100F00008D909D90AD90BC901797482559256A25E6
:100F10007B25F1013296EF70FF273196EE0FFF1F10
:100F2000EE0FFF1FE80FF91F80809180A280B38031
:100F3000482559256A257B25440F551F661F771FB5
:100F4000411DF3014483558366837783F3E1F215F2
:100F500008F091CF57E2852E821488F049815A819A
:100F60006B817C8140275127622773274C255D25A3
:100F70006E257F254F5554416642714931C04BE380
:100F8000942E9214E8F0B701A601402B512B622B4E
:100F9000732B89809A80AB80BC80482159216A21BB
:100FA0007B214601570180229122A222B3224829A7
:100FB00059296A297B2944525344644E704710C012
:100FC00049815A816B817C81402751276227732791
:100FD0004C255D256E257F254A525E436D4975433C
:100FE000F52DFF705C01A4E0FA9FA00CB11C112448
:100FF000BAA2A9A24D805E806F807884EBE17694DE
:10100000679457944794EA95D1F78D809E80AF807E
:10101000B884F5E0880C991CAA1CBB1CFA95D1F782
:1010200084289528A628B728E9A1FAA144805580EC
:1010300066807780840C951CA61CB71C480D591D32
:101040006A1D7B1D8D8C9E8CAF8CB8A0480D591DE0
:101050006A1D7B1D46015701A2E0B694A7949794A0
:101060008794AA95D1F726013701BEE1440C551C9F
:10107000661C771CBA95D1F7482859286A287B281E
:10108000AFEF2A1A3A0ACD80DE80EF80F88489809B
:101090009A80AB80BC808D8E9E8EAF8EB8A2A0E56C
:1010A0002A16310459F04D835E836F837887098354
:1010B0001A832B833C8393018201D8CEFC01EB5B26
:1010C000FF4F89849A84AB84BC84480D591D6A1DE6
:1010D0007B1D40835183628373833496B701A601DD
:1010E000AD84BE84CF84D8884A0D5B1D6C1D7D1DE8
:1010F00040835183628373833496C988DA88EB888E
:10110000FC884C0C5D1C6E1C7F1C408251826282EC
:10111000738234964D895E896F89788D040F151F0F
:10112000261F371F0083118322833383349649811E
:101130005A816B817C81898C9A8CAB8CBC8C480DDC
:10114000591D6A1D7B1D4083518362837383719790
:10115000108281E090E0A2960FB6F894DEBF0FBE39
:10116000CDBFDF91CF911F910F91FF90EF90DF9056
:10117000CF90BF90AF909F908F907F906F905F9037
:101180004F903F902F900895CF92DF92EF92FF9271
:101190000F931F93CF93DF937C018B01EC01CE0162
:1011A0008E199F0980179107CCF46E01E991F0E048
:1011B00084E0F595E7958A95E1F7E55BFD4F608161
:1011C00082E69BE0A6D6D601EC91EF70F0E0E55BFD
:1011D000FD4F608182E69BE09CD6E1CF82E69BE0FA
:1011E000DF91CF911F910F91FF90EF90DF90CF9003
:1011F000F4C64F925F926F927F92AF92BF92CF925E
:10120000DF92EF92FF920F931F93CF93DF935B01D7
:10121000D82FC92F29013A0140E250E068E071E07F
:1012200081EE9CE00E94E01B1092010D1092020DD5
:101230001092030D1092040D1092E00C6501ED2E3A
:10124000FC2EE5016096F60164918CE99CE076DD68
:10125000C414D504E604F70409F09BC060E88CE9E7
:101260009CE070D98091E00C60E08833C1F78CE994
:101270009CE068D960E08CE99CE064D960E08CE98E
:101280009CE060D98091010D9091020DA091030D19
:10129000B091040DBC01CD012DE196958795779510
:1012A00067952A95D1F78CE99CE04CD98091010D86
:1012B0009091020DA091030DB091040DBC01CD01E0
:1012C00035E196958795779567953A95D1F78CE9AD
:1012D0009CE038D98091010D9091020DA091030DF1
:1012E000B091040DBC01CD014DE0969587957795A1
:1012F00067954A95D1F78CE99CE024D98091010D3E
:101300009091020DA091030DB091040DBC01CD018F
:1013100055E096958795779567955A95D1F78CE91D
:101320009CE010D96091010D660F660F660F8CE985
:101330009CE008D9E1EEFCE06081718182819381BB
:101340000E94F81861937193819391938DE0E1303D
:10135000F80791F7A1EEBCE0F801C80180962D9145
:101360002193E817F907D9F760E270E0C8010CDFB4
:1013700082E69BE0DF91CF911F910F91FF90EF905C
:10138000DF90CF90BF90AF907F906F905F904F9025
:1013900024C6EFEFCE1ADE0AEE0AFE0ACC15DD05F2
:1013A00009F051CF5601DE2DCF2D48CFCF93DF93DB
:1013B00090E0FC01EE5FFC4F2491FC01E454FD4FF2
:1013C0008491882361F190E0880F991FFC01E85D0A
:1013D000FD4FC591D491FC01E857FD4FA591B49103
:1013E000611109C09FB7F894888120958223888372
:1013F000EC912E230BC0623061F49FB7F8943881D2
:10140000822F809583238883EC912E2B2C939FBF72
:1014100006C08FB7F894E8812E2B28838FBFDF9109
:10142000CF9108958F929F92AF92BF92CF92DF9209
:10143000EF92FF926B017C010E94D8014B015C018D
:10144000C114D104E104F104F1F00E94D801DC01DF
:10145000CB0188199909AA09BB09883E9340A105C7
:10146000B10570F321E0C21AD108E108F10888EE55
:10147000880E83E0981EA11CB11CC114D104E104A4
:10148000F10419F7DDCFFF90EF90DF90CF90BF9080
:10149000AF909F908F9008952FB7F89460917B083C
:1014A00070917C0880917D0890917E082FBF0895EF
:1014B0001F920F920FB60F9211242F933F938F9389
:1014C0009F93AF93BF9380917B0890917C08A091EC
:1014D0007D08B0917E0830917A0823E0230F2D37E4
:1014E00020F40196A11DB11D05C026E8230F029628
:1014F000A11DB11D20937A0880937B0890937C08EE
:10150000A0937D08B0937E0880917F089091800819
:10151000A0918108B09182080196A11DB11D809310
:101520007F0890938008A0938108B0938208BF91B0
:10153000AF919F918F913F912F910F900FBE0F9080
:101540001F901895CF92DF92EF92FF920F931F9307
:10155000CF93DF93D62FC72F7A01BC0182E69BE0A1
:101560003FD50D2F1C2FC0E0D0E0CE15DF054CF588
:101570006801F8018081803128F460E070E082E643
:101580009BE0D6D60F5F1F4FF601808108D78AEB0C
:1015900095E001D71C161D0694F4CE018F70992793
:1015A0000F9721F482E69BE018D509C0CE01877021
:1015B0009927079721F460E282E69BE0AAD421965E
:1015C000D4CF82E69BE0DF91CF911F910F91FF90E6
:1015D000EF90DF90CF9001C5EF92FF920F931F9392
:1015E000CF93DF938C017B01EA01209711F01982E0
:1015F000188241E050E0B80185EC9AE03FD49C01AC
:10160000892BA9F082E0E816F10464F0A7014150AB
:101610005109B8016F5F7F4F85EC9AE02FD49C0190
:101620002F5F3F4F209731F03983288303C080E03C
:1016300090E001C0C901DF91CF911F910F91FF9000
:10164000EF9008958FEF9BE0CDD385EC9AE0CAC36D
:10165000EF92FF920F931F93CF93DF93CDB7DEB737
:10166000CE50D1400FB6F894DEBF0FBECDBF7C0187
:101670008B01E8DFA801B70185EC9AE0BFD20097A3
:1016800049F0A801BE016F5F7F4F85EC9AE0F6D369
:1016900081E090E0C25FDE4F0FB6F894DEBF0FBE70
:1016A000CDBFDF91CF911F910F91FF90EF900895E3
:1016B000AF92BF92CF92DF92EF92FF920F931F9360
:1016C000CF93DF938C017B016A015901BBDFB70126
:1016D000C801BEDFEC01019761F4A50160E071E093
:1016E000C6017ADF892B39F4A701B8018CE592E0B5
:1016F00029DFC0E0D0E0CE01DF91CF911F910F91A3
:10170000FF90EF90DF90CF90BF90AF9008951F9221
:101710000F920FB60F9211240BB60F922F933F9397
:101720004F935F936F937F938F939F93AF93BF93E9
:10173000EF93FF93E0918508F0918608309709F4C4
:1017400051C0968DA685B785858591FF04C09C9173
:10175000892329F447C09C91892309F043C0A389B8
:10176000B4899C918589809589238C9386899789F2
:101770000197F1F7608D718DA685B785558538E0A5
:1017800020E0CB010197F1F7822F90E095958795A6
:10179000282F4C91452309F02068315091F7868D10
:1017A00081FD20958091840890E001968F739927A0
:1017B00030918308381749F0A0918408B0E0A65C06
:1017C000B74F2C938093840803C0868D8160868FE9
:1017D000828D938D0197F1F7A389B4899C918589B6
:1017E000892B8C93FF91EF91BF91AF919F918F9136
:1017F0007F916F915F914F913F912F910F900BBE11
:101800000F900FBE0F901F901895E0918508F091F2
:101810008608E817F90769F4A389B4899C9185893A
:10182000809589238C93109286081092850881E018
:10183000089580E00895CF93DF93C0E0D0E09E014B
:101840002F5F3F4FF90184918F3F11F0E901F7CFEE
:10185000319684918F3FD1F78CE792E09CD5CE01F1
:10186000A6D5CE01DF91CF9108950F931F93CF930B
:10187000DF93EC018FE892E08ED59E01DD0F440BE3
:10188000550B07E819E060E070E0CB01B2DC83EAB9
:1018900092E081D508EE17E02CE13DEF43E050E007
:1018A00060E070EE83E090E0A4DCA7E8B9E0980186
:1018B000E8ECF7E0AF018D91E90199919E0189274C
:1018C000EA018993AE01D9E0A73ABD07A1F7A7EADB
:1018D000B9E081918D9387E0E03DF807D1F786EB81
:1018E00092E059D568E070E087EA99E0DF91CF9106
:1018F0001F910F9149CC8F929F92AF92BF92CF923E
:10190000DF92EF92FF920F931F93CF93DF93CDB7A8
:10191000DEB7C855D1090FB6F894DEBF0FBECDBFF4
:1019200012EFC12E12E0D12E7E0121E4E20EF11C55
:101930005E0183E2A80EB11C01E5802E912C8C0E75
:101940009D1EA8E08A0E911C8FEF9BE0BDD1892BD4
:1019500009F440C142E350E068E078E08FEF9BE09B
:101960008DD2182F81EC92E016D5412F50E060E027
:1019700070E02AE082E69BE0E8D282E69BE02DD38D
:101980006BEC72E082E69BE02BD38BEE92E003D50A
:1019900000E010E0F801E85FF74F80811F928F931D
:1019A000DF92CF92FF92EF920E941719C701F3D4F2
:1019B0008AEB95E0F0D40F5F1F4F0F900F900F90C0
:1019C0000F900F900F900233110521F782E69BE0F4
:1019D00004D380910808811105C067EF72E082E6A8
:1019E0009BE0FED2E8ECF5E020E030E0922F882783
:1019F00048E050E0BC01660F771F97FF05C0CB01A0
:101A0000A5E08A27905801C0CB014150510991F7B8
:101A1000819391932F5F3F4F211581E0380731F774
:101A2000209138088091390890E0922BDE011196C0
:101A3000BD0120E030E0A901435F574FFA0140812A
:101A4000FB014193BF012F5F3F4F2032310599F7D2
:101A500099A38AA300E010E08D91E12FFF27E827EA
:101A6000102F0027EE0FFF1FE853FA4F808191815E
:101A700008271927AA15BB0579F78FEF92E08BD4B9
:101A8000A80160E070E02AE082E69BE05ED282E698
:101A90009BE0A3D2012B31F065E070E08FEF9BE07B
:101AA00047D4FFCFFE01319681E090E0DC01A85FD2
:101AB000B74F2C912193019680339105B9F7BBDE86
:101AC000D4DEE7EAF9E0DE01D19681918D9329E039
:101AD000EF3AF207D1F748EE57E0A8ECB7E0BD01C6
:101AE00085E090E09C01285F374FF9012081FA01E1
:101AF0003191AF012327FB012193BF01019685326C
:101B0000910581F7AE014F5A5F4FCA012D91FC013B
:101B10002193CF01F7E0A03DBF07C1F7DE01D996C1
:101B2000FA018191AF018D93E815F905C9F780E8B5
:101B30008093870882E08093880810928908109229
:101B40008A0880E480938B08FE013196ACE8B8E007
:101B500001900D928A95E1F765E470E087E898E0DE
:101B6000C9D5892BD1F08091B3099091B409811521
:101B7000F0E99F0761F180312AE6920741F0803257
:101B8000AAE69A07F1F080339A4639F414C062E06D
:101B900070E08FEF9BE0CCD3FFCF67E070E08FEF7A
:101BA0009BE0C6D382E69BE018D26CED75E080E046
:101BB00090E038DCC9CE64E070E08FEF9BE0B8D3F2
:101BC000FFCF63E070E08FEF9BE0B2D3FFCF61E027
:101BD00070E0E5CFC85ADF4F0FB6F894DEBF0FBEF6
:101BE000CDBFDF91CF911F910F91FF90EF90DF90CC
:101BF000CF90BF90AF909F908F900895CF92DF923B
:101C0000EF92FF920F931F93CF93DF936C017A01B2
:101C10008B01C0E0D0E0CE15DF0589F0D8016D91D1
:101C20008D01D601ED91FC910190F081E02DC6016E
:101C30001995892B11F47E0102C02196ECCFC701C2
:101C4000DF91CF911F910F91FF90EF90DF90CF9098
:101C50000895FC01A089B1898C91A689B78982FD7C
:101C60000FC09C91818D8F5F8F73228D821749F0F9
:101C7000218DDF01A20FB11D5D969C93818F089588
:101C80008C910895FC01918D828D981761F0828D61
:101C9000DF01A80FB11D5D968C91928D9F5F9F73A0
:101CA000928F90E008958FEF9FEF0895FC01918D42
:101CB000828D981731F0828DE80FF11D858D90E0AF
:101CC00008958FEF9FEF0895FC01918D228D892F4C
:101CD00090E0805C9F4F821B91098F739927089534
:101CE00085EC9AE0F1DF21E0892B09F420E0822FD6
:101CF000089582E69BE0E8DF21E0892B09F420E0EB
:101D0000822F08958FEF9BE0DFDF21E0892B09F41C
:101D100020E0822F0895FC01848DDF01A80FB11D02
:101D2000A35ABF4F2C91848D90E001968F73992711
:101D3000848FA689B7892C93A089B1898C918064FE
:101D40008C93938D848D981306C00288F389E02DBF
:101D500080818F7D80830895EF92FF920F931F9370
:101D6000CF93DF93EC0181E0888F9B8D8C8D98134E
:101D700005C0E889F989808185FD23C0F62E0B8D89
:101D800010E00F5F1F4F0F731127E02E8C8DE812AC
:101D90000BC00FB607FCFACFE889F989808185FF6F
:101DA000F5CFCE01B8DFF2CF8B8DFE01E80FF11D2C
:101DB000E35AFF4FF0820B8FEA89FB8980818062B2
:101DC00007C0EE89FF896083E889F9898081806492
:101DD000808381E090E0DF91CF911F910F91FF9080
:101DE000EF900895CF93DF93EC01888D8823C1F0A5
:101DF000EA89FB89808185FD05C0A889B9898C9114
:101E000086FD0EC00FB607FCF5CF808185FFF2CFAF
:101E1000A889B9898C9185FFEDCFCE017CDFE8CF11
:101E2000DF91CF9108956EDF81111BC080E090E0BB
:101E3000892B41F080E090E0892B21F00E94000086
:101E4000811111C080E090E0892B19F052DF8111DF
:101E50000DC080E090E0892B71F042DF811109C054
:101E6000089549DDE3CF0E940000ECCF0E940000FE
:101E7000F0CF0C94000008950E9413198F929F9246
:101E8000AF92BF92CF92DF92EF92FF920F931F9388
:101E9000CF93DF93EC016A017B0100E010E00C15A9
:101EA0001D0549F1F9DA688779878A879B87E88178
:101EB000F9810680F781E02DCE01199597FF15C0B5
:101EC000EBDA88849984AA84BB84DC01CB0188196D
:101ED0009909AA09BB098C809D80AE80BF808815B6
:101EE0009905AA05BB0518F306C0F70181937F0188
:101EF0000F5F1F4FD4CFC801DF91CF911F910F917A
:101F0000FF90EF90DF90CF90BF90AF909F908F9019
:101F10000895DC01ED91FC910190F081E02D199480
:101F20006115710579F0FB0101900020E9F7319707
:101F3000AF01461B570BDC01ED91FC910280F38150
:101F4000E02D199480E090E008954F925F926F9297
:101F50007F92EF92FF920F931F93CF93DF93CDB7B2
:101F6000DEB7A1970FB6F894DEBF0FBECDBF7C01E0
:101F7000FA01CB0119A2223008F42AE08E010F5D8C
:101F80001F4F422E512C612C712CBF01A3019201D5
:101F90000E94CE18F901CA01015011096A3014F4E7
:101FA000605D01C0695CD8016C93232B242B252B29
:101FB00061F7B801C701B4DFA1960FB6F894DEBF90
:101FC0000FBECDBFDF91CF911F910F91FF90EF908A
:101FD0007F906F905F904F90089564E173E0A0CF81
:101FE0000F931F93CF93DF93EC019ADF8C01CE0107
:101FF000F4DF800F911FDF91CF911F910F91089512
:102000001F920F920FB60F9211240BB60F922F93BF
:102010003F934F935F936F937F938F939F93AF9370
:10202000BF93EF93FF9385EC9AE075DEFF91EF91FC
:10203000BF91AF919F918F917F916F915F914F91E0
:102040003F912F910F900BBE0F900FBE0F901F90DE
:1020500018951F920F920FB60F9211240BB60F9284
:102060002F933F934F935F936F937F938F939F93A0
:10207000AF93BF93EF93FF9385EC9AE0EADDFF9176
:10208000EF91BF91AF919F918F917F916F915F91F0
:102090004F913F912F910F900BBE0F900FBE0F905D
:1020A0001F9018951F920F920FB60F9211240BB626
:1020B0000F922F933F934F935F936F937F938F93E1
:1020C0009F93AF93BF93EF93FF9382E69BE023DE52
:1020D000FF91EF91BF91AF919F918F917F916F9100
:1020E0005F914F913F912F910F900BBE0F900FBEBC
:1020F0000F901F9018951F920F920FB60F921124F8
:102100000BB60F922F933F934F935F936F937F93F1
:102110008F939F93AF93BF93EF93FF9382E69BE0E0
:1021200098DDFF91EF91BF91AF919F918F917F913A
:102130006F915F914F913F912F910F900BBE0F9038
:102140000FBE0F901F9018951F920F920FB60F920F
:1021500011240BB60F922F933F934F935F936F937E
:102160007F938F939F93AF93BF93EF93FF938FEFE3
:102170009BE0D1DDFF91EF91BF91AF919F918F9146
:102180007F916F915F914F913F912F910F900BBE77
:102190000F900FBE0F901F9018951F920F920FB6C1
:1021A0000F9211240BB60F922F933F934F935F938F
:1021B0006F937F938F939F93AF93BF93EF93FF930F
:1021C0008FEF9BE046DDFF91EF91BF91AF919F9123
:1021D0008F917F916F915F914F913F912F910F90D0
:1021E0000BBE0F900FBE0F901F901895362F90E0EA
:1021F000FC01EE5BFD4F4491FC01EE5FFC4F24912E
:10220000FC01E454FD4F9491992309F46AC04423DE
:1022100009F454C050E0FA013197E231F10508F0B9
:102220004DC08827EE58FF4F8F4FDAC7809180004E
:102230008F7707C0809180008F7D03C080918000E0
:10224000877F809380003AC084B58F7702C084B5C1
:102250008F7D84BD33C08091B0008F7703C08091A3
:10226000B0008F7D8093B00029C0809190008F775F
:1022700007C0809190008F7D03C080919000877F80
:10228000809390001BC08091A0008F7707C0809141
:10229000A0008F7D03C08091A000877F8093A00065
:1022A0000DC0809120018F7707C0809120018F7D24
:1022B00003C080912001877F80932001E92FF0E007
:1022C000EE0FFF1FE857FD4FA591B4918FB7F8941B
:1022D000EC91311103C020952E2301C02E2B2C939D
:1022E0008FBF0895FC01A089B18982E08C93A485F9
:1022F000B5851C92A685B7858FEC8C93108EA4892A
:10230000B5896C93A289B3898C9180618C93A289E1
:10231000B3898C9188608C93A289B3898C918068F1
:102320008C930288F389E02D80818F7D80830895CE
:10233000CF92DF92EF92FF920F931F93CF93DF9391
:102340006B01770FEE08FF08F7FE19C0EC016DE294
:10235000E0DD8C0144275527BA014C195D096E094F
:102360007F092AE0CE01F1DD800F911FDF91CF912F
:102370001F910F91FF90EF90DF90CF9008952AE08A
:10238000B701A601DF91CF911F910F91FF90EF90C0
:10239000DF90CF90DACDBC0182E69BE0C1CD482F23
:1023A00050E060E070E020E182E69BE0CECDCF928D
:1023B000DF92EF92FF92CF93DF936C01990FEE08BB
:1023C000FF08F7FE14C06DE282E69BE0A2DDEC019F
:1023D00044275527BA014C195D096E097F092AE087
:1023E00082E69BE0B2DD7C01EC0EFD1E07C02AE018
:1023F000B701A60182E69BE0A8DD7C0182E69BE0B6
:10240000ECDD8E0D9F1DDF91CF91FF90EF90DF905F
:10241000CF9008952F923F924F925F926F927F924A
:102420008F929F92AF92BF92CF92DF92EF92FF92E4
:102430000F931F93CF93DF93CDB7DEB72D970FB6D2
:10244000F894DEBF0FBECDBF6B017A0119012801E0
:102450001D828E834F83982F9427FB019F012C1997
:102460003D092E153F051CF421919227F7CF9B873C
:1024700087FD06C09091C40A80E489278093C40A2E
:10248000A12CB12C23E0822E912CC10101969D87B5
:102490008C878DE195E07FDF8D8181DF8AEB95E090
:1024A0007ADF8E817CDF8AEB95E075DF8F8177DFC5
:1024B000E4E08E16910429F48AEB95E06CDF8885C0
:1024C0006EDF88E295E067DFE114F10429F0A701EF
:1024D000B60186E193E036D88BE295E05CDF8B8530
:1024E0005EDF6EE275E082E69BE07ADDABD8B40198
:1024F000CE010596ADD8019709F0E0C0E114F104D2
:1025000049F461E070E0CE010B96A2D83C0101973E
:1025100039F0D4C0B701C6019BD8019791F3CEC062
:10252000AE01475F5F4F64E070E0CE01019654D882
:10253000892BC1F480E395E02EDF0E944C0A2091A4
:10254000860D3091870D621B730BAB0160E070E06C
:102550002AE082E69BE0F9DC67E475E082E69BE036
:102560003FDDA6C089859A85049764F18BE495E0E8
:1025700012DF898114DF8AEB95E00DDF8A810FDF9E
:102580008AEB95E008DF8B810ADF88E295E003DFC4
:102590000B8110E01A8619860115110551F18C8105
:1025A000F1018083AE01475F5F4FB8018C859D8547
:1025B00013D8892B09F464C089859A8508171907EF
:1025C000C1F061C086E595E0E6DE69857A8582E640
:1025D0009BE0AEDE82E69BE000DD49855A85411531
:1025E000510509F46BC0BE016F5F7F4F89E795E02D
:1025F00063C09A81892F8F7E2FE7280F223048F4FD
:10260000F2E0AF16B10408F059C09FEFA91AB90A59
:1026100040CF833CC1F483EE8E8391E09F83988703
:102620008B876CE271E080E090E00E94120AECE29D
:10263000AE16E1E0BE0609F441C094E0892E912C6B
:10264000E12CF12CE2CF29853A850217130714F407
:102650001A8709874114510429F029853A85F20126
:102660003183208387FD06C02091C30A80E482273E
:102670008093C30A95FF24C080E2682E712C20C08D
:10268000BB24B39401C0B12C8EEE92E084DE8B2D7E
:1026900090E08DDE84E895E07EDEC80188DE8EE87D
:1026A00095E079DE89859A8582DE88E995E073DE9A
:1026B000A701B60185E792E00E94A20A612C712C65
:1026C000C3012D960FB6F894DEBF0FBECDBFDF91CC
:1026D000CF911F910F91FF90EF90DF90CF90BF901F
:1026E000AF909F908F907F906F905F904F903F90B2
:1026F0002F9008952F923F924F925F926F927F9208
:102700008F929F92AF92BF92CF92DF92EF92FF9201
:102710000F931F93CF93DF93CDB7DEB729970FB6F3
:10272000F894DEBF0FBECDBF6C015B01AB01BC01F5
:1027300081EB95E00E94A20A0E944C0A7093870DDB
:102740006093860D1092B4091092B30940E051E0F5
:102750005E834D83212C312CE12CF12CC7018B544D
:10276000964F98878F831A8219824501612C712CAC
:102770004091030250E08091C40A4815590514F4B1
:10278000806202C08F7DA4018E010F5F1F4F2F81D9
:102790003885B601660D771D3DDE009781F12091E9
:1027A000030230E0821A930A620E731E1814190491
:1027B000FCF229813A818097F1F48091C30A81115A
:1027C00002C080E801C080E94F815885240F351F81
:1027D0008E010D5F1F4F40E050E060E070E01ADEB8
:1027E000009769F049815A812B813C81240F351F64
:1027F0003A832983DECF290101E010E002C000E026
:1028000010E0232831F0F601EA0DFB1D31975985C0
:1028100050830130110509F048C082E04816510488
:102820000CF443C0E40CF51CF701ED54F64F308175
:10283000F701EC54F64F2081832F90E0982F8827E2
:10284000820F911D9093B4098093B3093C3659F4DB
:10285000F5013197EC0DFD1D90819987208322248D
:102860002394312C11C03136C1F420930802C201E7
:102870000297E80EF91E212C312C85E0A82EB12CF0
:1028800094E0C92E92E0D92E4D815E8141505109CC
:102890005E834D83452B09F061CFA70165EB79E09D
:1028A0008CEB95E00E94A20A02C000E010E0C80193
:1028B00029960FB6F894DEBF0FBECDBFDF91CF9142
:1028C0001F910F91FF90EF90DF90CF90BF90AF904E
:1028D0009F908F907F906F905F904F903F902F9040
:1028E00008958FE392E09093680D8093670D87E6DB
:1028F0009DE00C94050CCF93DF93CDB7DEB7E9973D
:102900000FB6F894DEBF0FBECDBF789484B5826059
:1029100084BD84B5816084BD85B5826085BD85B583
:10292000816085BD80916E00816080936E00109201
:10293000810080918100826080938100809181007C
:10294000816080938100809180008160809380000D
:102950008091B10084608093B1008091B00081606B
:102960008093B0008091910082608093910080916B
:1029700091008160809391008091900081608093AC
:1029800090008091A10082608093A1008091A100BD
:1029900081608093A1008091A00081608093A0005D
:1029A00080912101826080932101809121018160C9
:1029B000809321018091200181608093200180918A
:1029C0007A00846080937A0080917A00826080939C
:1029D0007A0080917A00816080937A0080917A00F9
:1029E000806880937A001092C1001091650D8091EB
:1029F000660D109300028093010261E0812F0E9416
:102A0000D60961E0812FF2DB1092820D1092810DC8
:102A10001092800D10927F0D10927E0D10927D0D00
:102A200082E490E09093840D8093830D8091730DE8
:102A300096EF980F943048F02EEC280F243028F0B1
:102A400022EC280F283008F06EC02FE030E03093E1
:102A50007E0D20937D0D20E430E03093800D209397
:102A60007F0D27E230E03093820D2093810D94306A
:102A700060F02EEC280F243040F022EC280F283094
:102A800008F436C2A0E0B0E035C2A8E6B0E0E8E65F
:102A9000F0E02081943018F08E53883010F081E0FF
:102AA00001C084E0822B8C938091730D96EF980F78
:102AB000943058F02EEC280F243038F022EC280FF8
:102AC000283030F020E030E005C02BE630E002C0D6
:102AD0002DE630E030937B0D20937A0D943010F486
:102AE0009AEF0BC0823381F0833381F0843381F01D
:102AF00092EC980F983070F492EC980F81E001C03E
:102B0000880F9A95EAF707C088E005C084E003C003
:102B100082E001C081E080937C0D8091830D9091D3
:102B2000840D0197F1F78091810D9091820D892B91
:102B300021F180918508909186082DE087369207D3
:102B4000E1F0009711F00E94050C8091850D8E7FB9
:102B50008093850D109284081092830887E69DE08B
:102B60009093860880938508E0917A0DF0917B0D13
:102B7000908180917C0D892B808366E082E69BE0CA
:102B8000B1DB6EE285EC9AE0ADDB66E08FEF9BE0B7
:102B9000A9DB61E08DE00E94D60961E088E00E9437
:102BA000D60961E087E00E94D60967E173E082E61A
:102BB0009BE016DA8FEF8CAB91E19DAB9EAB8FABB8
:102BC00085E0E9E0F2E0DE01999601900D928A95A8
:102BD000E1F78EEF8CA729A59AA5922789279BA5B7
:102BE00089278DA768EE73E080E090E00E94120ACA
:102BF00088EE93E0A0E0B0E08093030C9093040C87
:102C0000A093050CB093060C0E94220B10910002B9
:102C100060E0812FEBDA68EE73E080E090E00E94E4
:102C2000120A61E0812FE2DA1092C40A1092C30AFC
:102C300005E010E040E050E061E070E085EB99E0F5
:102C40000E94EC0A181619061CF06BE273E040C0F3
:102C50008091B5098B3391F441EB59E064E670E063
:102C600086EB99E00E94EC0A8091B1099091B2093B
:102C700001969093B2098093B10903C001501109E4
:102C8000C9F64091B1095091B20965EB79E08DE246
:102C900093E00E94A20A64E170E080E090E00E946C
:102CA000120A0E94220B9E01285C3F4FAE014F5F2B
:102CB0005F4F64E070E0CE01C4960E94580B01970C
:102CC00051F063E373E087E69DE08AD966E473E040
:102CD00082E69BE036C088AD99AD049719F088E490
:102CE00093E019C09E01285C3F4FAE014F5F5F4FDC
:102CF00065E070E0CE0189960E94580B8130910505
:102D000019F06CE673E01BC028AD39AD25303105F4
:102D100039F08FE793E03FDB88AD99AD48DB12C017
:102D20002C812093030230E0265031093093B00902
:102D30002093AF09121613063CF063EA73E087E6AE
:102D40009DE04ED980E090E0892B19F064ED73E0AE
:102D500002C06AEE73E082E69BE042D96FEF73E057
:102D600082E69BE03DD98BE0EEE0F2E0DE01999651
:102D700001900D928A95E1F769E274E082E69BE0AA
:102D80002FD900E110E06DE382E69BE0C2D801504C
:102D90001109C9F782E69BE020D98EE394E0FBDAC3
:102DA0006BE070E082E69BE0C3DA67E474E082E601
:102DB0009BE016D96BE070E0CE0189969BDC892BF5
:102DC00021F48FE494E0E7DA16C086E594E0E3DAD4
:102DD00060E070E082E69BE0ABDA67E474E082E6F4
:102DE0009BE0FED800E110E06DE282E69BE091D826
:102DF00001501109C9F782E69BE0EFD80E941B0C35
:102E00000E94350C60E674E082E69BE0E9D887EA30
:102E100099E0DE0111963A2F4B2FFC012191CF0151
:102E20002D93F9E08F3A9F07C1F7A7E8B9E0CE01EB
:102E300009962D91FC012193CF01F9E0A73ABF0734
:102E4000C1F780E88093870884E080938808109217
:102E5000890810928A0888E280938B08E32FF42F68
:102E6000ACE8B8E001900D928A95E1F76DE270E070
:102E700087E898E03FDC82E08093020268E874E033
:102E800082E69BE0ADD861E070E08FEF9BE050DA26
:102E900062EA74E082E69BE0A3D882E69BE09DD8DC
:102EA00064EF71E080E090E00E94120A6EEC74E042
:102EB00082E69BE095D882E69BE08FD86CEF74E0C9
:102EC00082E69BE08DD860E088E090D964EF71E005
:102ED00080E090E00E94120A61E088E087D964EF08
:102EE00071E080E090E00E94120A0E94130FEBCF85
:102EF000A8E6B0E0283008F4CACDE0E0F0E0C9CDA3
:102F00001092C80A1092C70A88EE93E0A0E0B0E0E1
:102F10008093C90A9093CA0AA093CB0AB093CC0AB3
:102F20002FE132E03093C60A2093C50A45E351E011
:102F30005093D20A4093D10A44E351E05093D40A0B
:102F40004093D30A40E351E05093D60A4093D50A08
:102F500041E351E05093D80A4093D70A42E351E04D
:102F60005093DA0A4093D90A46E351E05093DC0AC1
:102F70004093DB0A1092DE0A1092DF0A1092E00AF8
:102F80001092E10A1092650B1092640B8093660B0D
:102F90009093670BA093680BB093690B3093630B0E
:102FA0002093620B45ED50E050936F0B40936E0BF6
:102FB00044ED50E05093710B4093700B40ED50E0A6
:102FC0005093730B4093720B41ED50E05093750B8F
:102FD0004093740B42ED50E05093770B4093760B87
:102FE00046ED50E05093790B4093780B10927B0B99
:102FF00010927C0B10927D0B10927E0B1092020CA3
:103000001092010C8093030C9093040CA093050C78
:10301000B093060C3093000C2093FF0B25EC30E0AE
:1030200030930C0C20930B0C24EC30E030930E0CFE
:1030300020930D0C20EC30E03093100C20930F0CFB
:1030400021EC30E03093120C2093110C22EC30E094
:103050003093140C2093130C26EC30E03093160CB4
:103060002093150C1092180C1092190C10921A0C37
:1030700010921B0C10929F0C10929E0C2FE232E0CB
:1030800030939D0C20939C0C10928B0D10928A0D06
:1030900027E332E03093890D2093880D10926A0D5A
:1030A0001092690D80936B0D90936C0DA0936D0D34
:1030B000B0936E0D8FE392E09093680D8093670D4F
:1030C00010927E0D10927D0D1092800D10927F0D4A
:1030D0001092820D1092810D1092840D1092830D2A
:1030E0006091850D6E7F6D7F6093850D6695617033
:1030F00081E068278DE07AD861E08DE00E94D609F2
:10310000EFE0F3E0E491E093770DE9ECF2E0E49195
:10311000F0E0EE0FFF1FE857FD4F859194919093DB
:10312000790D8093780D60E08CE00E94D609809143
:10313000850D81FD03C061E08CE058D88CE0809360
:10314000730DEEE0F3E0E491E093740DE8ECF2E04F
:10315000E491F0E0EE0FFF1FEE55FD4F8591949145
:103160009093760D8093750D89E090E09093660DB5
:103170008093650D089597FB072E16F4009406D0F2
:1031800077FD08D03CD007FC05D03EF490958195A2
:103190009F4F0895709561957F4F0895A1E21A2E73
:1031A000AA1BBB1BFD010DC0AA1FBB1FEE1FFF1FEB
:1031B000A217B307E407F50720F0A21BB30BE40B3B
:1031C000F50B661F771F881F991F1A9469F7609582
:1031D0007095809590959B01AC01BD01CF0108953C
:1031E000EE0FFF1F881F8BBF0790F691E02D1994FB
:1031F0006927962769277827872778270895AA1BA4
:10320000BB1B51E107C0AA1FBB1FA617B70710F0D1
:10321000A61BB70B881F991F5A95A9F78095909503
:10322000BC01CD01089581E090E0F894D2C20F93E3
:103230001F93CF93DF93CDB7DEB72E970FB6F894D9
:10324000DEBF0FBECDBF0E891F8986E08C831A8337
:1032500009838FEF9FE79E838D83AE01465E5F4FAC
:10326000688D798DCE01019611D02F813885F801B6
:10327000E20FF31F10822E960FB6F894DEBF0FBE3A
:10328000CDBFDF91CF911F910F9108952F923F9263
:103290004F925F926F927F928F929F92AF92BF9266
:1032A000CF92DF92EF92FF920F931F93CF93DF9312
:1032B000CDB7DEB72C970FB6F894DEBF0FBECDBFEB
:1032C0007C016B018A01FC0117821682838181FFD8
:1032D000B0C1CE0101964C01F7019381F60193FD37
:1032E000859193FF81916F01882309F49EC18532F6
:1032F00039F493FD859193FF81916F01853221F41B
:10330000B70190E0C7D1E8CF512C312C20E020321A
:10331000A0F48B3269F030F4803259F0833269F4D2
:1033200020612CC08D3239F0803339F4216026C001
:103330002260246023C0286021C027FD27C030ED13
:10334000380F3A3078F426FF06C0FAE05F9E300D61
:103350001124532E13C08AE0389E300D1124332ED1
:1033600020620CC08E3221F426FD5FC1206406C0AD
:103370008C3611F4206802C0883641F4F60193FDC2
:10338000859193FF81916F018111C1CF982F9F7D0E
:103390009554933028F40C5F1F4FFFE3F9830DC061
:1033A000833631F0833771F0833509F057C021C07F
:1033B000F801808189830E5F1F4F44244394512C70
:1033C000540114C03801F2E06F0E711CF801A080A6
:1033D000B18026FF03C0652D70E002C06FEF7FEF64
:1033E000C5012C874CD12C0183012C852F77222EEF
:1033F00016C03801F2E06F0E711CF801A080B18098
:1034000026FF03C0652D70E002C06FEF7FEFC5019E
:103410002C872AD12C012C852068222E830123FCA5
:1034200019C0832D90E048165906A0F4B70180E238
:1034300090E030D13A94F5CFF50127FC859127FE35
:1034400081915F01B70190E025D131103A94F1E00C
:103450004F1A51084114510479F7DEC0843611F037
:10346000893631F5F80127FF07C0608171818281BB
:1034700093810C5F1F4F08C060817181072E000C83
:10348000880B990B0E5F1F4F2F76722E97FF09C086
:1034900090958095709561957F4F8F4F9F4F2068D5
:1034A000722E2AE030E0A4012DD1A82EA81843C026
:1034B000853729F42F7EB22E2AE030E025C0F22F86
:1034C000F97FBF2E8F36C1F018F4883579F0ADC082
:1034D000803719F0883721F0A8C02F2F2061B22E35
:1034E000B4FE0DC08B2D8460B82E09C024FF0AC025
:1034F0009F2F9660B92E06C028E030E005C020E17D
:1035000030E002C020E132E0F801B7FE07C0608180
:103510007181828193810C5F1F4F06C06081718130
:1035200080E090E00E5F1F4FA401ECD0A82EA818F9
:10353000FB2DFF777F2E76FE0BC0372D3E7FA51427
:1035400050F474FE0AC072FC08C0372D3E7E05C0E0
:10355000BA2C372D03C0BA2C01C0B52C34FF0DC0D6
:10356000FE01EA0DF11D8081803311F4397E09C01E
:1035700032FF06C0B394B39404C0832F867809F059
:10358000B39433FD12C030FF06C05A2CB31418F4A4
:10359000530C5B18B32CB31460F4B70180E290E0D5
:1035A0003C8778D0B3943C85F6CFB31410F43B1825
:1035B00001C0312C34FF11C0B70180E390E03C879B
:1035C00069D03C8532FF16C031FD03C088E790E02A
:1035D00002C088E590E0B7010CC0832F867851F0D7
:1035E00031FF02C08BE201C080E237FD8DE2B701FE
:1035F00090E050D0A51430F4B70180E390E04AD0B9
:103600005A94F8CFAA94F401EA0DF11D8081B70114
:1036100090E040D0A110F6CF332009F45DCEB70181
:1036200080E290E037D03A94F7CFF7018681978116
:1036300002C08FEF9FEF2C960FB6F894DEBF0FBE3F
:10364000CDBFDF91CF911F910F91FF90EF90DF9051
:10365000CF90BF90AF909F908F907F906F905F9032
:103660004F903F902F900895FC010590615070405D
:103670000110D8F7809590958E0F9F1F0895FC013B
:103680006150704001900110D8F7809590958E0F91
:103690009F1F08950F931F93CF93DF93FB01238107
:1036A00021FD03C08FEF9FEF28C022FF16C0468187
:1036B0005781248135814217530744F4A081B18199
:1036C0009D012F5F3F4F318320838C93268137816B
:1036D0002F5F3F4F3783268310C0EB01092F182F30
:1036E0000084F185E02D1995892BE1F68E819F816B
:1036F00001969F838E83812F902FDF91CF911F9111
:103700000F910895FA01AA27283051F1203181F153
:10371000E8946F936E7F6E5F7F4F8F4F9F4FAF4FD9
:10372000B1E03ED0B4E03CD0670F781F891F9A1FEC
:10373000A11D680F791F8A1F911DA11D6A0F711DA0
:10374000811D911DA11D20D009F468943F912AE0AC
:10375000269F11243019305D3193DEF6CF01089594
:10376000462F4770405D4193B3E00FD0C9F7F6CFC5
:10377000462F4F70405D4A3318F0495D31FD40528D
:10378000419302D0A9F7EACFB4E0A6959795879523
:1037900077956795BA95C9F7009761057105089502
:1037A0009B01AC010A2E06945795479537952795AE
:1037B000BA95C9F7620F731F841F951FA01D089546
:1037C000FB01DC0102C005900D9241505040D8F73A
:1037D000089511E0C5EAD1E000E005C0802FFE01A8
:1037E000FFDC2196011DC63AD10780E00807B1F73A
:0437F000F894FFCF7B
:1037F4000900FFFE00C000000000C101000000A499
:10380400040006123456789A01020000000000AC4D
:103814000EFE0D640E420E560EF20E000000009EC7
:1038240006FE0D00000000B306FE0D0000000016A9
:1038340002FE0D6A028102FD011502303132333479
:103844003536373839616263646566004572726F74
:10385400723A20726573706F6E73652074696D655A
:103864006F75742E20415044553A20006669726D7C
:1038740077617265206C656E677468203D20004135
:1038840070706C69636174696F6E2068617368201D
:103894003A2000426F6F746C6F61646572206861D6
:1038A4007368203A200070696E436F6465203A2083
:1038B40000726561646C656E3A20003D3D3D3D5289
:1038C4006571756573742056502055706461746514
:1038D4002070686173653D3D3D3D00646174613AEB
:1038E4002000253032580074797065204F4B005207
:1038F4006563656976657220435243206368656336
:103904006B3A20000D0A00436865636B20416363D2
:1039140065737320746F2065534500310041545220
:103924003A20004572726F723A20505053206661FB
:10393400696C65640A0032004572726F723A2050F5
:103944005053206661696C65642E20526573706FF4
:103954006E7365206C656E6774683D004572726FA6
:10396400723A20494653206661696C65640A0045D1
:1039740072726F723A20494653206661696C6564BD
:103984002E20526573706F6E7365206C656E67745C
:10399400683D004572726F723A2049465343207461
:1039A4006F6F20736D616C6C2C2073686F756C6421
:1039B4002062652067726561746572207468616E47
:1039C40020363A0041636365737320746F20655336
:1039D4004520537563636573730041636365737353
:1039E40020746F20655345204661696C6564003D11
:1039F4003D3D3D3D3D3D3D3D3D3D3D536563757222
:103A04006520426F6F742050686173653D3D3D3D94
:103A14003D3D3D3D3D3D3D3D0053454C4543545F9B
:103A240043525950544F5F4150504C4554005365D4
:103A34006E64696E6720002062797465733A00468B
:103A440041494C3A200052656365697665642000FB
:103A54002D2D2D2D52657175657374206861736801
:103A640020766572696669636174696F6E20706837
:103A74006173652D2D2D2D005365634465765F5369
:103A84006563757265426F6F7420737563636573E4
:103A940073002D2D2D2D456E64205265717565734F
:103AA40074206861736820766572696669636174FD
:103AB400696F6E2070686173652D2D2D2D003D3D5D
:103AC4003D3D3D3D3D3D3D3D3D3D456E64205365A1
:103AD4006375726520426F6F742070686173653D11
:103AE4003D3D3D3D3D3D3D3D3D3D3D002A2A2A2A8B
:103AF4002A2A205374617274204170706C69636166
:103B040074696F6E202A2A2A2A2A2A2A0053656E8B
:103B140064202D2D3E207B007D2000205B005D0075
:103B24004572726F723A20543D312074696D656F2D
:103B3400757420696E2000206D73005265637620D1
:103B44003C2D2D207B004572726F723A2057726FA4
:103B54006E6720543D3120726573706F6E73652EED
:103B640020284C656E203D2000526573706F6E7383
:103B7400653A2000646174616C656E3A2000726578
:103B840063766C656E3A20004572726F723A205407
:103B94003D3120646174612074696D656F75740AC8
:103BA40000415044553A2020202020005265737073
:083BB4003A202020202000002F
:00000001FF
